{
  "_format": "hh-sol-artifact-1",
  "contractName": "ScatterStaking",
  "sourceName": "contracts/ScatterStaking.sol",
  "abi": [
    {
      "inputs": [
        {
          "internalType": "address",
          "name": "_scatterToken",
          "type": "address"
        },
        {
          "internalType": "address",
          "name": "_scatt3rToken",
          "type": "address"
        }
      ],
      "stateMutability": "nonpayable",
      "type": "constructor"
    },
    {
      "anonymous": false,
      "inputs": [
        {
          "indexed": true,
          "internalType": "address",
          "name": "previousOwner",
          "type": "address"
        },
        {
          "indexed": true,
          "internalType": "address",
          "name": "newOwner",
          "type": "address"
        }
      ],
      "name": "OwnershipTransferred",
      "type": "event"
    },
    {
      "anonymous": false,
      "inputs": [
        {
          "indexed": true,
          "internalType": "address",
          "name": "user",
          "type": "address"
        },
        {
          "indexed": false,
          "internalType": "uint256",
          "name": "amount",
          "type": "uint256"
        }
      ],
      "name": "StartedFarming",
      "type": "event"
    },
    {
      "anonymous": false,
      "inputs": [
        {
          "indexed": true,
          "internalType": "address",
          "name": "user",
          "type": "address"
        },
        {
          "indexed": false,
          "internalType": "uint256",
          "name": "amount",
          "type": "uint256"
        },
        {
          "indexed": false,
          "internalType": "uint256",
          "name": "reward",
          "type": "uint256"
        }
      ],
      "name": "StoppedFarming",
      "type": "event"
    },
    {
      "anonymous": false,
      "inputs": [
        {
          "indexed": true,
          "internalType": "address",
          "name": "user",
          "type": "address"
        },
        {
          "indexed": false,
          "internalType": "uint256",
          "name": "amount",
          "type": "uint256"
        }
      ],
      "name": "TokensLocked",
      "type": "event"
    },
    {
      "anonymous": false,
      "inputs": [
        {
          "indexed": true,
          "internalType": "address",
          "name": "user",
          "type": "address"
        },
        {
          "indexed": false,
          "internalType": "uint256",
          "name": "amount",
          "type": "uint256"
        }
      ],
      "name": "TokensUnlocked",
      "type": "event"
    },
    {
      "inputs": [
        {
          "internalType": "address",
          "name": "_user",
          "type": "address"
        }
      ],
      "name": "calculateFarmingReward",
      "outputs": [
        {
          "internalType": "uint256",
          "name": "",
          "type": "uint256"
        }
      ],
      "stateMutability": "view",
      "type": "function"
    },
    {
      "inputs": [
        {
          "internalType": "address",
          "name": "",
          "type": "address"
        }
      ],
      "name": "farmingBalance",
      "outputs": [
        {
          "internalType": "uint256",
          "name": "",
          "type": "uint256"
        }
      ],
      "stateMutability": "view",
      "type": "function"
    },
    {
      "inputs": [],
      "name": "farmingEnabled",
      "outputs": [
        {
          "internalType": "bool",
          "name": "",
          "type": "bool"
        }
      ],
      "stateMutability": "view",
      "type": "function"
    },
    {
      "inputs": [],
      "name": "farmingRewardRate",
      "outputs": [
        {
          "internalType": "uint256",
          "name": "",
          "type": "uint256"
        }
      ],
      "stateMutability": "view",
      "type": "function"
    },
    {
      "inputs": [
        {
          "internalType": "address",
          "name": "",
          "type": "address"
        }
      ],
      "name": "farmingStartTime",
      "outputs": [
        {
          "internalType": "uint256",
          "name": "",
          "type": "uint256"
        }
      ],
      "stateMutability": "view",
      "type": "function"
    },
    {
      "inputs": [
        {
          "internalType": "uint256",
          "name": "_amount",
          "type": "uint256"
        }
      ],
      "name": "lockTokens",
      "outputs": [],
      "stateMutability": "nonpayable",
      "type": "function"
    },
    {
      "inputs": [
        {
          "internalType": "address",
          "name": "",
          "type": "address"
        }
      ],
      "name": "lockedBalance",
      "outputs": [
        {
          "internalType": "uint256",
          "name": "",
          "type": "uint256"
        }
      ],
      "stateMutability": "view",
      "type": "function"
    },
    {
      "inputs": [],
      "name": "owner",
      "outputs": [
        {
          "internalType": "address",
          "name": "",
          "type": "address"
        }
      ],
      "stateMutability": "view",
      "type": "function"
    },
    {
      "inputs": [],
      "name": "renounceOwnership",
      "outputs": [],
      "stateMutability": "nonpayable",
      "type": "function"
    },
    {
      "inputs": [],
      "name": "scatt3rToken",
      "outputs": [
        {
          "internalType": "contract Scatt3rToken",
          "name": "",
          "type": "address"
        }
      ],
      "stateMutability": "view",
      "type": "function"
    },
    {
      "inputs": [],
      "name": "scatterToken",
      "outputs": [
        {
          "internalType": "contract IERC20",
          "name": "",
          "type": "address"
        }
      ],
      "stateMutability": "view",
      "type": "function"
    },
    {
      "inputs": [
        {
          "internalType": "uint256",
          "name": "_newRate",
          "type": "uint256"
        }
      ],
      "name": "setFarmingRewardRate",
      "outputs": [],
      "stateMutability": "nonpayable",
      "type": "function"
    },
    {
      "inputs": [
        {
          "internalType": "uint256",
          "name": "_amount",
          "type": "uint256"
        }
      ],
      "name": "startFarming",
      "outputs": [],
      "stateMutability": "nonpayable",
      "type": "function"
    },
    {
      "inputs": [],
      "name": "stopFarming",
      "outputs": [],
      "stateMutability": "nonpayable",
      "type": "function"
    },
    {
      "inputs": [],
      "name": "toggleFarming",
      "outputs": [],
      "stateMutability": "nonpayable",
      "type": "function"
    },
    {
      "inputs": [
        {
          "internalType": "address",
          "name": "newOwner",
          "type": "address"
        }
      ],
      "name": "transferOwnership",
      "outputs": [],
      "stateMutability": "nonpayable",
      "type": "function"
    }
  ],
  "bytecode": "0x608060405260646007556001600860006101000a81548160ff0219169083151502179055503480156200003157600080fd5b5060405162001c3838038062001c3883398181016040528101906200005791906200023e565b620000776200006b6200010860201b60201c565b6200011060201b60201c565b6001808190555081600260006101000a81548173ffffffffffffffffffffffffffffffffffffffff021916908373ffffffffffffffffffffffffffffffffffffffff16021790555080600360006101000a81548173ffffffffffffffffffffffffffffffffffffffff021916908373ffffffffffffffffffffffffffffffffffffffff160217905550505062000285565b600033905090565b60008060009054906101000a900473ffffffffffffffffffffffffffffffffffffffff169050816000806101000a81548173ffffffffffffffffffffffffffffffffffffffff021916908373ffffffffffffffffffffffffffffffffffffffff1602179055508173ffffffffffffffffffffffffffffffffffffffff168173ffffffffffffffffffffffffffffffffffffffff167f8be0079c531659141344cd1fd0a4f28419497f9722a3daafe3b4186f6b6457e060405160405180910390a35050565b600080fd5b600073ffffffffffffffffffffffffffffffffffffffff82169050919050565b60006200020682620001d9565b9050919050565b6200021881620001f9565b81146200022457600080fd5b50565b60008151905062000238816200020d565b92915050565b60008060408385031215620002585762000257620001d4565b5b6000620002688582860162000227565b92505060206200027b8582860162000227565b9150509250929050565b6119a380620002956000396000f3fe608060405234801561001057600080fd5b50600436106101005760003560e01c80638da5cb5b11610097578063ce82a36411610066578063ce82a36414610265578063cecf757a14610281578063e60494141461029d578063f2fde38b146102cd57610100565b80638da5cb5b146101ef57806390a870e11461020d5780639ae697bf1461022b578063b15efd531461025b57610100565b806364b734ec116100d357806364b734ec1461018d5780636e27d889146101ab57806370d85ca5146101c7578063715018a6146101e557610100565b80631bfa4c04146101055780635c6e3b6d1461010f5780635e0bc8541461013f578063629109051461016f575b600080fd5b61010d6102e9565b005b610129600480360381019061012491906110d1565b6105ad565b6040516101369190611117565b60405180910390f35b610159600480360381019061015491906110d1565b610685565b6040516101669190611117565b60405180910390f35b61017761069d565b604051610184919061114d565b60405180910390f35b6101956106b0565b6040516101a291906111c7565b60405180910390f35b6101c560048036038101906101c0919061120e565b6106d6565b005b6101cf610a1e565b6040516101dc919061125c565b60405180910390f35b6101ed610a44565b005b6101f7610a58565b6040516102049190611286565b60405180910390f35b610215610a81565b6040516102229190611117565b60405180910390f35b610245600480360381019061024091906110d1565b610a87565b6040516102529190611117565b60405180910390f35b610263610a9f565b005b61027f600480360381019061027a919061120e565b610ad3565b005b61029b6004803603810190610296919061120e565b610ae5565b005b6102b760048036038101906102b291906110d1565b610e31565b6040516102c49190611117565b60405180910390f35b6102e760048036038101906102e291906110d1565b610e49565b005b6102f1610ecc565b6000600560003373ffffffffffffffffffffffffffffffffffffffff1673ffffffffffffffffffffffffffffffffffffffff16815260200190815260200160002054905060008111610378576040517f08c379a000000000000000000000000000000000000000000000000000000000815260040161036f906112fe565b60405180910390fd5b6000610383336105ad565b90506000600560003373ffffffffffffffffffffffffffffffffffffffff1673ffffffffffffffffffffffffffffffffffffffff168152602001908152602001600020819055506000600660003373ffffffffffffffffffffffffffffffffffffffff1673ffffffffffffffffffffffffffffffffffffffff16815260200190815260200160002081905550600360009054906101000a900473ffffffffffffffffffffffffffffffffffffffff1673ffffffffffffffffffffffffffffffffffffffff1663a9059cbb33846040518363ffffffff1660e01b815260040161046c92919061131e565b6020604051808303816000875af115801561048b573d6000803e3d6000fd5b505050506040513d601f19601f820116820180604052508101906104af9190611373565b50600260009054906101000a900473ffffffffffffffffffffffffffffffffffffffff1673ffffffffffffffffffffffffffffffffffffffff1663a9059cbb33836040518363ffffffff1660e01b815260040161050d92919061131e565b6020604051808303816000875af115801561052c573d6000803e3d6000fd5b505050506040513d601f19601f820116820180604052508101906105509190611373565b503373ffffffffffffffffffffffffffffffffffffffff167f3068c9ffe29f3cc169769f3b9d6f19cbabb30137cc033b389114b72b9d79a8fd83836040516105999291906113a0565b60405180910390a250506105ab610f1b565b565b600080600560008473ffffffffffffffffffffffffffffffffffffffff1673ffffffffffffffffffffffffffffffffffffffff16815260200190815260200160002054905060008103610604576000915050610680565b6000600660008573ffffffffffffffffffffffffffffffffffffffff1673ffffffffffffffffffffffffffffffffffffffff168152602001908152602001600020544261065191906113f8565b905063bbf81e008160075484610667919061142c565b610671919061142c565b61067b919061149d565b925050505b919050565b60066020528060005260406000206000915090505481565b600860009054906101000a900460ff1681565b600260009054906101000a900473ffffffffffffffffffffffffffffffffffffffff1681565b6106de610ecc565b60008111610721576040517f08c379a00000000000000000000000000000000000000000000000000000000081526004016107189061151a565b60405180910390fd5b80600260009054906101000a900473ffffffffffffffffffffffffffffffffffffffff1673ffffffffffffffffffffffffffffffffffffffff166370a08231336040518263ffffffff1660e01b815260040161077d9190611286565b602060405180830381865afa15801561079a573d6000803e3d6000fd5b505050506040513d601f19601f820116820180604052508101906107be919061154f565b10156107ff576040517f08c379a00000000000000000000000000000000000000000000000000000000081526004016107f6906115c8565b60405180910390fd5b600260009054906101000a900473ffffffffffffffffffffffffffffffffffffffff1673ffffffffffffffffffffffffffffffffffffffff166323b872dd3330846040518463ffffffff1660e01b815260040161085e939291906115e8565b6020604051808303816000875af115801561087d573d6000803e3d6000fd5b505050506040513d601f19601f820116820180604052508101906108a19190611373565b6108e0576040517f08c379a00000000000000000000000000000000000000000000000000000000081526004016108d79061166b565b60405180910390fd5b600360009054906101000a900473ffffffffffffffffffffffffffffffffffffffff1673ffffffffffffffffffffffffffffffffffffffff166340c10f1933836040518363ffffffff1660e01b815260040161093d92919061131e565b600060405180830381600087803b15801561095757600080fd5b505af115801561096b573d6000803e3d6000fd5b5050505080600460003373ffffffffffffffffffffffffffffffffffffffff1673ffffffffffffffffffffffffffffffffffffffff16815260200190815260200160002060008282546109be919061168b565b925050819055503373ffffffffffffffffffffffffffffffffffffffff167fac87f20a77d28ee8bbb58ec87ea8fa968b3393efae1a368fd50b767c2847391c82604051610a0b9190611117565b60405180910390a2610a1b610f1b565b50565b600360009054906101000a900473ffffffffffffffffffffffffffffffffffffffff1681565b610a4c610f24565b610a566000610fa2565b565b60008060009054906101000a900473ffffffffffffffffffffffffffffffffffffffff16905090565b60075481565b60046020528060005260406000206000915090505481565b610aa7610f24565b600860009054906101000a900460ff1615600860006101000a81548160ff021916908315150217905550565b610adb610f24565b8060078190555050565b610aed610ecc565b600860009054906101000a900460ff16610b3c576040517f08c379a0000000000000000000000000000000000000000000000000000000008152600401610b339061170b565b60405180910390fd5b60008111610b7f576040517f08c379a0000000000000000000000000000000000000000000000000000000008152600401610b7690611777565b60405180910390fd5b80600360009054906101000a900473ffffffffffffffffffffffffffffffffffffffff1673ffffffffffffffffffffffffffffffffffffffff166370a08231336040518263ffffffff1660e01b8152600401610bdb9190611286565b602060405180830381865afa158015610bf8573d6000803e3d6000fd5b505050506040513d601f19601f82011682018060405250810190610c1c919061154f565b1015610c5d576040517f08c379a0000000000000000000000000000000000000000000000000000000008152600401610c54906117e3565b60405180910390fd5b600360009054906101000a900473ffffffffffffffffffffffffffffffffffffffff1673ffffffffffffffffffffffffffffffffffffffff166323b872dd3330846040518463ffffffff1660e01b8152600401610cbc939291906115e8565b6020604051808303816000875af1158015610cdb573d6000803e3d6000fd5b505050506040513d601f19601f82011682018060405250810190610cff9190611373565b610d3e576040517f08c379a0000000000000000000000000000000000000000000000000000000008152600401610d359061166b565b60405180910390fd5b80600560003373ffffffffffffffffffffffffffffffffffffffff1673ffffffffffffffffffffffffffffffffffffffff1681526020019081526020016000206000828254610d8d919061168b565b9250508190555042600660003373ffffffffffffffffffffffffffffffffffffffff1673ffffffffffffffffffffffffffffffffffffffff168152602001908152602001600020819055503373ffffffffffffffffffffffffffffffffffffffff167f97ff610dbb314854c6d18ab9481e296eeccb2bc62498bcfc9c2ab29ddc304d5682604051610e1e9190611117565b60405180910390a2610e2e610f1b565b50565b60056020528060005260406000206000915090505481565b610e51610f24565b600073ffffffffffffffffffffffffffffffffffffffff168173ffffffffffffffffffffffffffffffffffffffff1603610ec0576040517f08c379a0000000000000000000000000000000000000000000000000000000008152600401610eb790611875565b60405180910390fd5b610ec981610fa2565b50565b600260015403610f11576040517f08c379a0000000000000000000000000000000000000000000000000000000008152600401610f08906118e1565b60405180910390fd5b6002600181905550565b60018081905550565b610f2c611066565b73ffffffffffffffffffffffffffffffffffffffff16610f4a610a58565b73ffffffffffffffffffffffffffffffffffffffff1614610fa0576040517f08c379a0000000000000000000000000000000000000000000000000000000008152600401610f979061194d565b60405180910390fd5b565b60008060009054906101000a900473ffffffffffffffffffffffffffffffffffffffff169050816000806101000a81548173ffffffffffffffffffffffffffffffffffffffff021916908373ffffffffffffffffffffffffffffffffffffffff1602179055508173ffffffffffffffffffffffffffffffffffffffff168173ffffffffffffffffffffffffffffffffffffffff167f8be0079c531659141344cd1fd0a4f28419497f9722a3daafe3b4186f6b6457e060405160405180910390a35050565b600033905090565b600080fd5b600073ffffffffffffffffffffffffffffffffffffffff82169050919050565b600061109e82611073565b9050919050565b6110ae81611093565b81146110b957600080fd5b50565b6000813590506110cb816110a5565b92915050565b6000602082840312156110e7576110e661106e565b5b60006110f5848285016110bc565b91505092915050565b6000819050919050565b611111816110fe565b82525050565b600060208201905061112c6000830184611108565b92915050565b60008115159050919050565b61114781611132565b82525050565b6000602082019050611162600083018461113e565b92915050565b6000819050919050565b600061118d61118861118384611073565b611168565b611073565b9050919050565b600061119f82611172565b9050919050565b60006111b182611194565b9050919050565b6111c1816111a6565b82525050565b60006020820190506111dc60008301846111b8565b92915050565b6111eb816110fe565b81146111f657600080fd5b50565b600081359050611208816111e2565b92915050565b6000602082840312156112245761122361106e565b5b6000611232848285016111f9565b91505092915050565b600061124682611194565b9050919050565b6112568161123b565b82525050565b6000602082019050611271600083018461124d565b92915050565b61128081611093565b82525050565b600060208201905061129b6000830184611277565b92915050565b600082825260208201905092915050565b7f4e6f20746f6b656e73206661726d696e67000000000000000000000000000000600082015250565b60006112e86011836112a1565b91506112f3826112b2565b602082019050919050565b60006020820190508181036000830152611317816112db565b9050919050565b60006040820190506113336000830185611277565b6113406020830184611108565b9392505050565b61135081611132565b811461135b57600080fd5b50565b60008151905061136d81611347565b92915050565b6000602082840312156113895761138861106e565b5b60006113978482850161135e565b91505092915050565b60006040820190506113b56000830185611108565b6113c26020830184611108565b9392505050565b7f4e487b7100000000000000000000000000000000000000000000000000000000600052601160045260246000fd5b6000611403826110fe565b915061140e836110fe565b9250828203905081811115611426576114256113c9565b5b92915050565b6000611437826110fe565b9150611442836110fe565b9250828202611450816110fe565b91508282048414831517611467576114666113c9565b5b5092915050565b7f4e487b7100000000000000000000000000000000000000000000000000000000600052601260045260246000fd5b60006114a8826110fe565b91506114b3836110fe565b9250826114c3576114c261146e565b5b828204905092915050565b7f43616e6e6f74206c6f636b203020746f6b656e73000000000000000000000000600082015250565b60006115046014836112a1565b915061150f826114ce565b602082019050919050565b60006020820190508181036000830152611533816114f7565b9050919050565b600081519050611549816111e2565b92915050565b6000602082840312156115655761156461106e565b5b60006115738482850161153a565b91505092915050565b7f496e73756666696369656e7420534341545445522062616c616e636500000000600082015250565b60006115b2601c836112a1565b91506115bd8261157c565b602082019050919050565b600060208201905081810360008301526115e1816115a5565b9050919050565b60006060820190506115fd6000830186611277565b61160a6020830185611277565b6116176040830184611108565b949350505050565b7f5472616e73666572206661696c65640000000000000000000000000000000000600082015250565b6000611655600f836112a1565b91506116608261161f565b602082019050919050565b6000602082019050818103600083015261168481611648565b9050919050565b6000611696826110fe565b91506116a1836110fe565b92508282019050808211156116b9576116b86113c9565b5b92915050565b7f4661726d696e67206973206e6f7420656e61626c656400000000000000000000600082015250565b60006116f56016836112a1565b9150611700826116bf565b602082019050919050565b60006020820190508181036000830152611724816116e8565b9050919050565b7f43616e6e6f74206661726d203020746f6b656e73000000000000000000000000600082015250565b60006117616014836112a1565b915061176c8261172b565b602082019050919050565b6000602082019050818103600083015261179081611754565b9050919050565b7f496e73756666696369656e7420534341545433522062616c616e636500000000600082015250565b60006117cd601c836112a1565b91506117d882611797565b602082019050919050565b600060208201905081810360008301526117fc816117c0565b9050919050565b7f4f776e61626c653a206e6577206f776e657220697320746865207a65726f206160008201527f6464726573730000000000000000000000000000000000000000000000000000602082015250565b600061185f6026836112a1565b915061186a82611803565b604082019050919050565b6000602082019050818103600083015261188e81611852565b9050919050565b7f5265656e7472616e637947756172643a207265656e7472616e742063616c6c00600082015250565b60006118cb601f836112a1565b91506118d682611895565b602082019050919050565b600060208201905081810360008301526118fa816118be565b9050919050565b7f4f776e61626c653a2063616c6c6572206973206e6f7420746865206f776e6572600082015250565b60006119376020836112a1565b915061194282611901565b602082019050919050565b600060208201905081810360008301526119668161192a565b905091905056fea26469706673582212201b059d635ac80d327abdbdfc3ffed0a3a4dc2196b4362071bf7349d339782a3564736f6c63430008180033",
  "linkReferences": {},
  "deployedLinkReferences": {}
}