{
  "_format": "hh-sol-artifact-1",
  "contractName": "ScatterToken",
  "sourceName": "contracts/ScatterToken.sol",
  "abi": [
    {
      "inputs": [],
      "stateMutability": "nonpayable",
      "type": "constructor"
    },
    {
      "anonymous": false,
      "inputs": [
        {
          "indexed": true,
          "internalType": "address",
          "name": "owner",
          "type": "address"
        },
        {
          "indexed": true,
          "internalType": "address",
          "name": "spender",
          "type": "address"
        },
        {
          "indexed": false,
          "internalType": "uint256",
          "name": "value",
          "type": "uint256"
        }
      ],
      "name": "Approval",
      "type": "event"
    },
    {
      "anonymous": false,
      "inputs": [
        {
          "indexed": true,
          "internalType": "address",
          "name": "previousOwner",
          "type": "address"
        },
        {
          "indexed": true,
          "internalType": "address",
          "name": "newOwner",
          "type": "address"
        }
      ],
      "name": "OwnershipTransferred",
      "type": "event"
    },
    {
      "anonymous": false,
      "inputs": [
        {
          "indexed": true,
          "internalType": "address",
          "name": "burner",
          "type": "address"
        },
        {
          "indexed": false,
          "internalType": "uint256",
          "name": "amount",
          "type": "uint256"
        }
      ],
      "name": "TokensBurned",
      "type": "event"
    },
    {
      "anonymous": false,
      "inputs": [
        {
          "indexed": true,
          "internalType": "address",
          "name": "user",
          "type": "address"
        },
        {
          "indexed": false,
          "internalType": "uint256",
          "name": "amount",
          "type": "uint256"
        }
      ],
      "name": "TokensLocked",
      "type": "event"
    },
    {
      "anonymous": false,
      "inputs": [
        {
          "indexed": true,
          "internalType": "address",
          "name": "user",
          "type": "address"
        },
        {
          "indexed": false,
          "internalType": "uint256",
          "name": "amount",
          "type": "uint256"
        },
        {
          "indexed": false,
          "internalType": "string",
          "name": "unlockType",
          "type": "string"
        }
      ],
      "name": "TokensUnlocked",
      "type": "event"
    },
    {
      "anonymous": false,
      "inputs": [
        {
          "indexed": true,
          "internalType": "address",
          "name": "from",
          "type": "address"
        },
        {
          "indexed": true,
          "internalType": "address",
          "name": "to",
          "type": "address"
        },
        {
          "indexed": false,
          "internalType": "uint256",
          "name": "value",
          "type": "uint256"
        }
      ],
      "name": "Transfer",
      "type": "event"
    },
    {
      "inputs": [],
      "name": "LOCK_DURATION",
      "outputs": [
        {
          "internalType": "uint256",
          "name": "",
          "type": "uint256"
        }
      ],
      "stateMutability": "view",
      "type": "function"
    },
    {
      "inputs": [],
      "name": "PARTIAL_UNLOCK_DURATION",
      "outputs": [
        {
          "internalType": "uint256",
          "name": "",
          "type": "uint256"
        }
      ],
      "stateMutability": "view",
      "type": "function"
    },
    {
      "inputs": [],
      "name": "PARTIAL_UNLOCK_PERCENT",
      "outputs": [
        {
          "internalType": "uint256",
          "name": "",
          "type": "uint256"
        }
      ],
      "stateMutability": "view",
      "type": "function"
    },
    {
      "inputs": [
        {
          "internalType": "address",
          "name": "owner",
          "type": "address"
        },
        {
          "internalType": "address",
          "name": "spender",
          "type": "address"
        }
      ],
      "name": "allowance",
      "outputs": [
        {
          "internalType": "uint256",
          "name": "",
          "type": "uint256"
        }
      ],
      "stateMutability": "view",
      "type": "function"
    },
    {
      "inputs": [
        {
          "internalType": "address",
          "name": "spender",
          "type": "address"
        },
        {
          "internalType": "uint256",
          "name": "amount",
          "type": "uint256"
        }
      ],
      "name": "approve",
      "outputs": [
        {
          "internalType": "bool",
          "name": "",
          "type": "bool"
        }
      ],
      "stateMutability": "nonpayable",
      "type": "function"
    },
    {
      "inputs": [
        {
          "internalType": "address",
          "name": "account",
          "type": "address"
        }
      ],
      "name": "balanceOf",
      "outputs": [
        {
          "internalType": "uint256",
          "name": "",
          "type": "uint256"
        }
      ],
      "stateMutability": "view",
      "type": "function"
    },
    {
      "inputs": [],
      "name": "decimals",
      "outputs": [
        {
          "internalType": "uint8",
          "name": "",
          "type": "uint8"
        }
      ],
      "stateMutability": "view",
      "type": "function"
    },
    {
      "inputs": [
        {
          "internalType": "address",
          "name": "spender",
          "type": "address"
        },
        {
          "internalType": "uint256",
          "name": "subtractedValue",
          "type": "uint256"
        }
      ],
      "name": "decreaseAllowance",
      "outputs": [
        {
          "internalType": "bool",
          "name": "",
          "type": "bool"
        }
      ],
      "stateMutability": "nonpayable",
      "type": "function"
    },
    {
      "inputs": [
        {
          "internalType": "address",
          "name": "spender",
          "type": "address"
        },
        {
          "internalType": "uint256",
          "name": "addedValue",
          "type": "uint256"
        }
      ],
      "name": "increaseAllowance",
      "outputs": [
        {
          "internalType": "bool",
          "name": "",
          "type": "bool"
        }
      ],
      "stateMutability": "nonpayable",
      "type": "function"
    },
    {
      "inputs": [
        {
          "internalType": "uint256",
          "name": "amount",
          "type": "uint256"
        }
      ],
      "name": "lockTokens",
      "outputs": [],
      "stateMutability": "nonpayable",
      "type": "function"
    },
    {
      "inputs": [
        {
          "internalType": "address",
          "name": "to",
          "type": "address"
        },
        {
          "internalType": "uint256",
          "name": "amount",
          "type": "uint256"
        }
      ],
      "name": "mint",
      "outputs": [],
      "stateMutability": "nonpayable",
      "type": "function"
    },
    {
      "inputs": [],
      "name": "name",
      "outputs": [
        {
          "internalType": "string",
          "name": "",
          "type": "string"
        }
      ],
      "stateMutability": "view",
      "type": "function"
    },
    {
      "inputs": [],
      "name": "owner",
      "outputs": [
        {
          "internalType": "address",
          "name": "",
          "type": "address"
        }
      ],
      "stateMutability": "view",
      "type": "function"
    },
    {
      "inputs": [],
      "name": "renounceOwnership",
      "outputs": [],
      "stateMutability": "nonpayable",
      "type": "function"
    },
    {
      "inputs": [
        {
          "internalType": "address",
          "name": "_stakingContract",
          "type": "address"
        }
      ],
      "name": "setStakingContract",
      "outputs": [],
      "stateMutability": "nonpayable",
      "type": "function"
    },
    {
      "inputs": [],
      "name": "stakingContract",
      "outputs": [
        {
          "internalType": "address",
          "name": "",
          "type": "address"
        }
      ],
      "stateMutability": "view",
      "type": "function"
    },
    {
      "inputs": [],
      "name": "symbol",
      "outputs": [
        {
          "internalType": "string",
          "name": "",
          "type": "string"
        }
      ],
      "stateMutability": "view",
      "type": "function"
    },
    {
      "inputs": [],
      "name": "totalSupply",
      "outputs": [
        {
          "internalType": "uint256",
          "name": "",
          "type": "uint256"
        }
      ],
      "stateMutability": "view",
      "type": "function"
    },
    {
      "inputs": [
        {
          "internalType": "address",
          "name": "to",
          "type": "address"
        },
        {
          "internalType": "uint256",
          "name": "amount",
          "type": "uint256"
        }
      ],
      "name": "transfer",
      "outputs": [
        {
          "internalType": "bool",
          "name": "",
          "type": "bool"
        }
      ],
      "stateMutability": "nonpayable",
      "type": "function"
    },
    {
      "inputs": [
        {
          "internalType": "address",
          "name": "from",
          "type": "address"
        },
        {
          "internalType": "address",
          "name": "to",
          "type": "address"
        },
        {
          "internalType": "uint256",
          "name": "amount",
          "type": "uint256"
        }
      ],
      "name": "transferFrom",
      "outputs": [
        {
          "internalType": "bool",
          "name": "",
          "type": "bool"
        }
      ],
      "stateMutability": "nonpayable",
      "type": "function"
    },
    {
      "inputs": [
        {
          "internalType": "address",
          "name": "newOwner",
          "type": "address"
        }
      ],
      "name": "transferOwnership",
      "outputs": [],
      "stateMutability": "nonpayable",
      "type": "function"
    },
    {
      "inputs": [
        {
          "internalType": "address",
          "name": "",
          "type": "address"
        }
      ],
      "name": "userLocks",
      "outputs": [
        {
          "internalType": "uint256",
          "name": "amount",
          "type": "uint256"
        },
        {
          "internalType": "uint256",
          "name": "lockTime",
          "type": "uint256"
        },
        {
          "internalType": "uint256",
          "name": "lastPartialUnlock",
          "type": "uint256"
        },
        {
          "internalType": "uint256",
          "name": "remainingAmount",
          "type": "uint256"
        }
      ],
      "stateMutability": "view",
      "type": "function"
    }
  ],
  "bytecode": "0x60806040523480156200001157600080fd5b506040518060400160405280600781526020017f53434154544552000000000000000000000000000000000000000000000000008152506040518060400160405280600781526020017f534341545445520000000000000000000000000000000000000000000000000081525081600390816200008f9190620005af565b508060049081620000a19190620005af565b5050506001600581905550620000cc620000c0620000f060201b60201c565b620000f860201b60201c565b620000ea336b033b2e3c9fd0803ce8000000620001be60201b60201c565b620007b1565b600033905090565b6000600660009054906101000a900473ffffffffffffffffffffffffffffffffffffffff16905081600660006101000a81548173ffffffffffffffffffffffffffffffffffffffff021916908373ffffffffffffffffffffffffffffffffffffffff1602179055508173ffffffffffffffffffffffffffffffffffffffff168173ffffffffffffffffffffffffffffffffffffffff167f8be0079c531659141344cd1fd0a4f28419497f9722a3daafe3b4186f6b6457e060405160405180910390a35050565b600073ffffffffffffffffffffffffffffffffffffffff168273ffffffffffffffffffffffffffffffffffffffff160362000230576040517f08c379a00000000000000000000000000000000000000000000000000000000081526004016200022790620006f7565b60405180910390fd5b62000244600083836200032b60201b60201c565b806002600082825462000258919062000748565b92505081905550806000808473ffffffffffffffffffffffffffffffffffffffff1673ffffffffffffffffffffffffffffffffffffffff168152602001908152602001600020600082825401925050819055508173ffffffffffffffffffffffffffffffffffffffff16600073ffffffffffffffffffffffffffffffffffffffff167fddf252ad1be2c89b69c2b068fc378daa952ba7f163c4a11628f55a4df523b3ef836040516200030b919062000794565b60405180910390a362000327600083836200033060201b60201c565b5050565b505050565b505050565b600081519050919050565b7f4e487b7100000000000000000000000000000000000000000000000000000000600052604160045260246000fd5b7f4e487b7100000000000000000000000000000000000000000000000000000000600052602260045260246000fd5b60006002820490506001821680620003b757607f821691505b602082108103620003cd57620003cc6200036f565b5b50919050565b60008190508160005260206000209050919050565b60006020601f8301049050919050565b600082821b905092915050565b600060088302620004377fffffffffffffffffffffffffffffffffffffffffffffffffffffffffffffffff82620003f8565b620004438683620003f8565b95508019841693508086168417925050509392505050565b6000819050919050565b6000819050919050565b6000620004906200048a62000484846200045b565b62000465565b6200045b565b9050919050565b6000819050919050565b620004ac836200046f565b620004c4620004bb8262000497565b84845462000405565b825550505050565b600090565b620004db620004cc565b620004e8818484620004a1565b505050565b5b81811015620005105762000504600082620004d1565b600181019050620004ee565b5050565b601f8211156200055f576200052981620003d3565b6200053484620003e8565b8101602085101562000544578190505b6200055c6200055385620003e8565b830182620004ed565b50505b505050565b600082821c905092915050565b6000620005846000198460080262000564565b1980831691505092915050565b60006200059f838362000571565b9150826002028217905092915050565b620005ba8262000335565b67ffffffffffffffff811115620005d657620005d562000340565b5b620005e282546200039e565b620005ef82828562000514565b600060209050601f83116001811462000627576000841562000612578287015190505b6200061e858262000591565b8655506200068e565b601f1984166200063786620003d3565b60005b8281101562000661578489015182556001820191506020850194506020810190506200063a565b868310156200068157848901516200067d601f89168262000571565b8355505b6001600288020188555050505b505050505050565b600082825260208201905092915050565b7f45524332303a206d696e7420746f20746865207a65726f206164647265737300600082015250565b6000620006df601f8362000696565b9150620006ec82620006a7565b602082019050919050565b600060208201905081810360008301526200071281620006d0565b9050919050565b7f4e487b7100000000000000000000000000000000000000000000000000000000600052601160045260246000fd5b600062000755826200045b565b915062000762836200045b565b92508282019050808211156200077d576200077c62000719565b5b92915050565b6200078e816200045b565b82525050565b6000602082019050620007ab600083018462000783565b92915050565b611e2f80620007c16000396000f3fe608060405234801561001057600080fd5b50600436106101425760003560e01c8063715018a6116100b8578063a9059cbb1161007c578063a9059cbb1461037c578063b1213521146103ac578063dd62ed3e146103ca578063ee99205c146103fa578063f2fde38b14610418578063faa0f2061461043457610142565b8063715018a6146102ea5780638da5cb5b146102f457806395d89b41146103125780639dd373b914610330578063a457c2d71461034c57610142565b8063313ce5671161010a578063313ce56714610216578063395093511461023457806340c10f1914610264578063485d3834146102805780636e27d8891461029e57806370a08231146102ba57610142565b80630259ef581461014757806306fdde031461017a578063095ea7b31461019857806318160ddd146101c857806323b872dd146101e6575b600080fd5b610161600480360381019061015c9190611329565b610452565b604051610171949392919061136f565b60405180910390f35b610182610482565b60405161018f9190611444565b60405180910390f35b6101b260048036038101906101ad9190611492565b610514565b6040516101bf91906114ed565b60405180910390f35b6101d0610537565b6040516101dd9190611508565b60405180910390f35b61020060048036038101906101fb9190611523565b610541565b60405161020d91906114ed565b60405180910390f35b61021e610570565b60405161022b9190611592565b60405180910390f35b61024e60048036038101906102499190611492565b610579565b60405161025b91906114ed565b60405180910390f35b61027e60048036038101906102799190611492565b6105b0565b005b61028861064e565b6040516102959190611508565b60405180910390f35b6102b860048036038101906102b391906115ad565b610655565b005b6102d460048036038101906102cf9190611329565b6107a7565b6040516102e19190611508565b60405180910390f35b6102f26107ef565b005b6102fc610803565b60405161030991906115e9565b60405180910390f35b61031a61082d565b6040516103279190611444565b60405180910390f35b61034a60048036038101906103459190611329565b6108bf565b005b61036660048036038101906103619190611492565b61097a565b60405161037391906114ed565b60405180910390f35b61039660048036038101906103919190611492565b6109f1565b6040516103a391906114ed565b60405180910390f35b6103b4610a14565b6040516103c19190611508565b60405180910390f35b6103e460048036038101906103df9190611604565b610a1a565b6040516103f19190611508565b60405180910390f35b610402610aa1565b60405161040f91906115e9565b60405180910390f35b610432600480360381019061042d9190611329565b610ac7565b005b61043c610b4a565b6040516104499190611508565b60405180910390f35b60086020528060005260406000206000915090508060000154908060010154908060020154908060030154905084565b60606003805461049190611673565b80601f01602080910402602001604051908101604052809291908181526020018280546104bd90611673565b801561050a5780601f106104df5761010080835404028352916020019161050a565b820191906000526020600020905b8154815290600101906020018083116104ed57829003601f168201915b5050505050905090565b60008061051f610b4f565b905061052c818585610b57565b600191505092915050565b6000600254905090565b60008061054c610b4f565b9050610559858285610d20565b610564858585610dac565b60019150509392505050565b60006012905090565b600080610584610b4f565b90506105a58185856105968589610a1a565b6105a091906116d3565b610b57565b600191505092915050565b600760009054906101000a900473ffffffffffffffffffffffffffffffffffffffff1673ffffffffffffffffffffffffffffffffffffffff163373ffffffffffffffffffffffffffffffffffffffff1614610640576040517f08c379a000000000000000000000000000000000000000000000000000000000815260040161063790611753565b60405180910390fd5b61064a8282611022565b5050565b62278d0081565b60008111610698576040517f08c379a000000000000000000000000000000000000000000000000000000000815260040161068f906117bf565b60405180910390fd5b806106a2336107a7565b10156106e3576040517f08c379a00000000000000000000000000000000000000000000000000000000081526004016106da9061182b565b60405180910390fd5b6106ee333083610dac565b6000600860003373ffffffffffffffffffffffffffffffffffffffff1673ffffffffffffffffffffffffffffffffffffffff16815260200190815260200160002090508181600001819055504281600101819055504281600201819055508181600301819055503373ffffffffffffffffffffffffffffffffffffffff167fac87f20a77d28ee8bbb58ec87ea8fa968b3393efae1a368fd50b767c2847391c8360405161079b9190611508565b60405180910390a25050565b60008060008373ffffffffffffffffffffffffffffffffffffffff1673ffffffffffffffffffffffffffffffffffffffff168152602001908152602001600020549050919050565b6107f7611178565b61080160006111f6565b565b6000600660009054906101000a900473ffffffffffffffffffffffffffffffffffffffff16905090565b60606004805461083c90611673565b80601f016020809104026020016040519081016040528092919081815260200182805461086890611673565b80156108b55780601f1061088a576101008083540402835291602001916108b5565b820191906000526020600020905b81548152906001019060200180831161089857829003601f168201915b5050505050905090565b6108c7611178565b600073ffffffffffffffffffffffffffffffffffffffff168173ffffffffffffffffffffffffffffffffffffffff1603610936576040517f08c379a000000000000000000000000000000000000000000000000000000000815260040161092d90611897565b60405180910390fd5b80600760006101000a81548173ffffffffffffffffffffffffffffffffffffffff021916908373ffffffffffffffffffffffffffffffffffffffff16021790555050565b600080610985610b4f565b905060006109938286610a1a565b9050838110156109d8576040517f08c379a00000000000000000000000000000000000000000000000000000000081526004016109cf90611929565b60405180910390fd5b6109e58286868403610b57565b60019250505092915050565b6000806109fc610b4f565b9050610a09818585610dac565b600191505092915050565b61a8c081565b6000600160008473ffffffffffffffffffffffffffffffffffffffff1673ffffffffffffffffffffffffffffffffffffffff16815260200190815260200160002060008373ffffffffffffffffffffffffffffffffffffffff1673ffffffffffffffffffffffffffffffffffffffff16815260200190815260200160002054905092915050565b600760009054906101000a900473ffffffffffffffffffffffffffffffffffffffff1681565b610acf611178565b600073ffffffffffffffffffffffffffffffffffffffff168173ffffffffffffffffffffffffffffffffffffffff1603610b3e576040517f08c379a0000000000000000000000000000000000000000000000000000000008152600401610b35906119bb565b60405180910390fd5b610b47816111f6565b50565b606481565b600033905090565b600073ffffffffffffffffffffffffffffffffffffffff168373ffffffffffffffffffffffffffffffffffffffff1603610bc6576040517f08c379a0000000000000000000000000000000000000000000000000000000008152600401610bbd90611a4d565b60405180910390fd5b600073ffffffffffffffffffffffffffffffffffffffff168273ffffffffffffffffffffffffffffffffffffffff1603610c35576040517f08c379a0000000000000000000000000000000000000000000000000000000008152600401610c2c90611adf565b60405180910390fd5b80600160008573ffffffffffffffffffffffffffffffffffffffff1673ffffffffffffffffffffffffffffffffffffffff16815260200190815260200160002060008473ffffffffffffffffffffffffffffffffffffffff1673ffffffffffffffffffffffffffffffffffffffff168152602001908152602001600020819055508173ffffffffffffffffffffffffffffffffffffffff168373ffffffffffffffffffffffffffffffffffffffff167f8c5be1e5ebec7d5bd14f71427d1e84f3dd0314c0f7b2291e5b200ac8c7c3b92583604051610d139190611508565b60405180910390a3505050565b6000610d2c8484610a1a565b90507fffffffffffffffffffffffffffffffffffffffffffffffffffffffffffffffff8114610da65781811015610d98576040517f08c379a0000000000000000000000000000000000000000000000000000000008152600401610d8f90611b4b565b60405180910390fd5b610da58484848403610b57565b5b50505050565b600073ffffffffffffffffffffffffffffffffffffffff168373ffffffffffffffffffffffffffffffffffffffff1603610e1b576040517f08c379a0000000000000000000000000000000000000000000000000000000008152600401610e1290611bdd565b60405180910390fd5b600073ffffffffffffffffffffffffffffffffffffffff168273ffffffffffffffffffffffffffffffffffffffff1603610e8a576040517f08c379a0000000000000000000000000000000000000000000000000000000008152600401610e8190611c6f565b60405180910390fd5b610e958383836112bc565b60008060008573ffffffffffffffffffffffffffffffffffffffff1673ffffffffffffffffffffffffffffffffffffffff16815260200190815260200160002054905081811015610f1b576040517f08c379a0000000000000000000000000000000000000000000000000000000008152600401610f1290611d01565b60405180910390fd5b8181036000808673ffffffffffffffffffffffffffffffffffffffff1673ffffffffffffffffffffffffffffffffffffffff16815260200190815260200160002081905550816000808573ffffffffffffffffffffffffffffffffffffffff1673ffffffffffffffffffffffffffffffffffffffff168152602001908152602001600020600082825401925050819055508273ffffffffffffffffffffffffffffffffffffffff168473ffffffffffffffffffffffffffffffffffffffff167fddf252ad1be2c89b69c2b068fc378daa952ba7f163c4a11628f55a4df523b3ef846040516110099190611508565b60405180910390a361101c8484846112c1565b50505050565b600073ffffffffffffffffffffffffffffffffffffffff168273ffffffffffffffffffffffffffffffffffffffff1603611091576040517f08c379a000000000000000000000000000000000000000000000000000000000815260040161108890611d6d565b60405180910390fd5b61109d600083836112bc565b80600260008282546110af91906116d3565b92505081905550806000808473ffffffffffffffffffffffffffffffffffffffff1673ffffffffffffffffffffffffffffffffffffffff168152602001908152602001600020600082825401925050819055508173ffffffffffffffffffffffffffffffffffffffff16600073ffffffffffffffffffffffffffffffffffffffff167fddf252ad1be2c89b69c2b068fc378daa952ba7f163c4a11628f55a4df523b3ef836040516111609190611508565b60405180910390a3611174600083836112c1565b5050565b611180610b4f565b73ffffffffffffffffffffffffffffffffffffffff1661119e610803565b73ffffffffffffffffffffffffffffffffffffffff16146111f4576040517f08c379a00000000000000000000000000000000000000000000000000000000081526004016111eb90611dd9565b60405180910390fd5b565b6000600660009054906101000a900473ffffffffffffffffffffffffffffffffffffffff16905081600660006101000a81548173ffffffffffffffffffffffffffffffffffffffff021916908373ffffffffffffffffffffffffffffffffffffffff1602179055508173ffffffffffffffffffffffffffffffffffffffff168173ffffffffffffffffffffffffffffffffffffffff167f8be0079c531659141344cd1fd0a4f28419497f9722a3daafe3b4186f6b6457e060405160405180910390a35050565b505050565b505050565b600080fd5b600073ffffffffffffffffffffffffffffffffffffffff82169050919050565b60006112f6826112cb565b9050919050565b611306816112eb565b811461131157600080fd5b50565b600081359050611323816112fd565b92915050565b60006020828403121561133f5761133e6112c6565b5b600061134d84828501611314565b91505092915050565b6000819050919050565b61136981611356565b82525050565b60006080820190506113846000830187611360565b6113916020830186611360565b61139e6040830185611360565b6113ab6060830184611360565b95945050505050565b600081519050919050565b600082825260208201905092915050565b60005b838110156113ee5780820151818401526020810190506113d3565b60008484015250505050565b6000601f19601f8301169050919050565b6000611416826113b4565b61142081856113bf565b93506114308185602086016113d0565b611439816113fa565b840191505092915050565b6000602082019050818103600083015261145e818461140b565b905092915050565b61146f81611356565b811461147a57600080fd5b50565b60008135905061148c81611466565b92915050565b600080604083850312156114a9576114a86112c6565b5b60006114b785828601611314565b92505060206114c88582860161147d565b9150509250929050565b60008115159050919050565b6114e7816114d2565b82525050565b600060208201905061150260008301846114de565b92915050565b600060208201905061151d6000830184611360565b92915050565b60008060006060848603121561153c5761153b6112c6565b5b600061154a86828701611314565b935050602061155b86828701611314565b925050604061156c8682870161147d565b9150509250925092565b600060ff82169050919050565b61158c81611576565b82525050565b60006020820190506115a76000830184611583565b92915050565b6000602082840312156115c3576115c26112c6565b5b60006115d18482850161147d565b91505092915050565b6115e3816112eb565b82525050565b60006020820190506115fe60008301846115da565b92915050565b6000806040838503121561161b5761161a6112c6565b5b600061162985828601611314565b925050602061163a85828601611314565b9150509250929050565b7f4e487b7100000000000000000000000000000000000000000000000000000000600052602260045260246000fd5b6000600282049050600182168061168b57607f821691505b60208210810361169e5761169d611644565b5b50919050565b7f4e487b7100000000000000000000000000000000000000000000000000000000600052601160045260246000fd5b60006116de82611356565b91506116e983611356565b9250828201905080821115611701576117006116a4565b5b92915050565b7f4f6e6c79207374616b696e6720636f6e74726163742063616e206d696e740000600082015250565b600061173d601e836113bf565b915061174882611707565b602082019050919050565b6000602082019050818103600083015261176c81611730565b9050919050565b7f416d6f756e74206d7573742062652067726561746572207468616e2030000000600082015250565b60006117a9601d836113bf565b91506117b482611773565b602082019050919050565b600060208201905081810360008301526117d88161179c565b9050919050565b7f496e73756666696369656e742062616c616e6365000000000000000000000000600082015250565b60006118156014836113bf565b9150611820826117df565b602082019050919050565b6000602082019050818103600083015261184481611808565b9050919050565b7f496e76616c6964207374616b696e6720636f6e74726163740000000000000000600082015250565b60006118816018836113bf565b915061188c8261184b565b602082019050919050565b600060208201905081810360008301526118b081611874565b9050919050565b7f45524332303a2064656372656173656420616c6c6f77616e63652062656c6f7760008201527f207a65726f000000000000000000000000000000000000000000000000000000602082015250565b60006119136025836113bf565b915061191e826118b7565b604082019050919050565b6000602082019050818103600083015261194281611906565b9050919050565b7f4f776e61626c653a206e6577206f776e657220697320746865207a65726f206160008201527f6464726573730000000000000000000000000000000000000000000000000000602082015250565b60006119a56026836113bf565b91506119b082611949565b604082019050919050565b600060208201905081810360008301526119d481611998565b9050919050565b7f45524332303a20617070726f76652066726f6d20746865207a65726f2061646460008201527f7265737300000000000000000000000000000000000000000000000000000000602082015250565b6000611a376024836113bf565b9150611a42826119db565b604082019050919050565b60006020820190508181036000830152611a6681611a2a565b9050919050565b7f45524332303a20617070726f766520746f20746865207a65726f20616464726560008201527f7373000000000000000000000000000000000000000000000000000000000000602082015250565b6000611ac96022836113bf565b9150611ad482611a6d565b604082019050919050565b60006020820190508181036000830152611af881611abc565b9050919050565b7f45524332303a20696e73756666696369656e7420616c6c6f77616e6365000000600082015250565b6000611b35601d836113bf565b9150611b4082611aff565b602082019050919050565b60006020820190508181036000830152611b6481611b28565b9050919050565b7f45524332303a207472616e736665722066726f6d20746865207a65726f20616460008201527f6472657373000000000000000000000000000000000000000000000000000000602082015250565b6000611bc76025836113bf565b9150611bd282611b6b565b604082019050919050565b60006020820190508181036000830152611bf681611bba565b9050919050565b7f45524332303a207472616e7366657220746f20746865207a65726f206164647260008201527f6573730000000000000000000000000000000000000000000000000000000000602082015250565b6000611c596023836113bf565b9150611c6482611bfd565b604082019050919050565b60006020820190508181036000830152611c8881611c4c565b9050919050565b7f45524332303a207472616e7366657220616d6f756e742065786365656473206260008201527f616c616e63650000000000000000000000000000000000000000000000000000602082015250565b6000611ceb6026836113bf565b9150611cf682611c8f565b604082019050919050565b60006020820190508181036000830152611d1a81611cde565b9050919050565b7f45524332303a206d696e7420746f20746865207a65726f206164647265737300600082015250565b6000611d57601f836113bf565b9150611d6282611d21565b602082019050919050565b60006020820190508181036000830152611d8681611d4a565b9050919050565b7f4f776e61626c653a2063616c6c6572206973206e6f7420746865206f776e6572600082015250565b6000611dc36020836113bf565b9150611dce82611d8d565b602082019050919050565b60006020820190508181036000830152611df281611db6565b905091905056fea264697066735822122078fbe4efa781e249b1749ea7127c416f240c8e2b72781b499a2fe7e9c8b9ea4a64736f6c63430008180033",
  "linkReferences": {},
  "deployedLinkReferences": {}
}