{
  "_format": "hh-sol-artifact-1",
  "contractName": "Scatt3rToken",
  "sourceName": "contracts/Scatt3rToken.sol",
  "abi": [
    {
      "inputs": [],
      "stateMutability": "nonpayable",
      "type": "constructor"
    },
    {
      "anonymous": false,
      "inputs": [
        {
          "indexed": true,
          "internalType": "address",
          "name": "owner",
          "type": "address"
        },
        {
          "indexed": true,
          "internalType": "address",
          "name": "spender",
          "type": "address"
        },
        {
          "indexed": false,
          "internalType": "uint256",
          "name": "value",
          "type": "uint256"
        }
      ],
      "name": "Approval",
      "type": "event"
    },
    {
      "anonymous": false,
      "inputs": [
        {
          "indexed": true,
          "internalType": "address",
          "name": "previousOwner",
          "type": "address"
        },
        {
          "indexed": true,
          "internalType": "address",
          "name": "newOwner",
          "type": "address"
        }
      ],
      "name": "OwnershipTransferred",
      "type": "event"
    },
    {
      "anonymous": false,
      "inputs": [
        {
          "indexed": true,
          "internalType": "address",
          "name": "from",
          "type": "address"
        },
        {
          "indexed": true,
          "internalType": "address",
          "name": "to",
          "type": "address"
        },
        {
          "indexed": false,
          "internalType": "uint256",
          "name": "value",
          "type": "uint256"
        }
      ],
      "name": "Transfer",
      "type": "event"
    },
    {
      "inputs": [
        {
          "internalType": "address",
          "name": "owner",
          "type": "address"
        },
        {
          "internalType": "address",
          "name": "spender",
          "type": "address"
        }
      ],
      "name": "allowance",
      "outputs": [
        {
          "internalType": "uint256",
          "name": "",
          "type": "uint256"
        }
      ],
      "stateMutability": "view",
      "type": "function"
    },
    {
      "inputs": [
        {
          "internalType": "address",
          "name": "spender",
          "type": "address"
        },
        {
          "internalType": "uint256",
          "name": "amount",
          "type": "uint256"
        }
      ],
      "name": "approve",
      "outputs": [
        {
          "internalType": "bool",
          "name": "",
          "type": "bool"
        }
      ],
      "stateMutability": "nonpayable",
      "type": "function"
    },
    {
      "inputs": [
        {
          "internalType": "address",
          "name": "account",
          "type": "address"
        }
      ],
      "name": "balanceOf",
      "outputs": [
        {
          "internalType": "uint256",
          "name": "",
          "type": "uint256"
        }
      ],
      "stateMutability": "view",
      "type": "function"
    },
    {
      "inputs": [],
      "name": "decimals",
      "outputs": [
        {
          "internalType": "uint8",
          "name": "",
          "type": "uint8"
        }
      ],
      "stateMutability": "view",
      "type": "function"
    },
    {
      "inputs": [
        {
          "internalType": "address",
          "name": "spender",
          "type": "address"
        },
        {
          "internalType": "uint256",
          "name": "subtractedValue",
          "type": "uint256"
        }
      ],
      "name": "decreaseAllowance",
      "outputs": [
        {
          "internalType": "bool",
          "name": "",
          "type": "bool"
        }
      ],
      "stateMutability": "nonpayable",
      "type": "function"
    },
    {
      "inputs": [
        {
          "internalType": "address",
          "name": "spender",
          "type": "address"
        },
        {
          "internalType": "uint256",
          "name": "addedValue",
          "type": "uint256"
        }
      ],
      "name": "increaseAllowance",
      "outputs": [
        {
          "internalType": "bool",
          "name": "",
          "type": "bool"
        }
      ],
      "stateMutability": "nonpayable",
      "type": "function"
    },
    {
      "inputs": [
        {
          "internalType": "address",
          "name": "to",
          "type": "address"
        },
        {
          "internalType": "uint256",
          "name": "amount",
          "type": "uint256"
        }
      ],
      "name": "mint",
      "outputs": [],
      "stateMutability": "nonpayable",
      "type": "function"
    },
    {
      "inputs": [],
      "name": "name",
      "outputs": [
        {
          "internalType": "string",
          "name": "",
          "type": "string"
        }
      ],
      "stateMutability": "view",
      "type": "function"
    },
    {
      "inputs": [],
      "name": "owner",
      "outputs": [
        {
          "internalType": "address",
          "name": "",
          "type": "address"
        }
      ],
      "stateMutability": "view",
      "type": "function"
    },
    {
      "inputs": [],
      "name": "renounceOwnership",
      "outputs": [],
      "stateMutability": "nonpayable",
      "type": "function"
    },
    {
      "inputs": [
        {
          "internalType": "address",
          "name": "_stakingContract",
          "type": "address"
        }
      ],
      "name": "setStakingContract",
      "outputs": [],
      "stateMutability": "nonpayable",
      "type": "function"
    },
    {
      "inputs": [],
      "name": "stakingContract",
      "outputs": [
        {
          "internalType": "address",
          "name": "",
          "type": "address"
        }
      ],
      "stateMutability": "view",
      "type": "function"
    },
    {
      "inputs": [],
      "name": "symbol",
      "outputs": [
        {
          "internalType": "string",
          "name": "",
          "type": "string"
        }
      ],
      "stateMutability": "view",
      "type": "function"
    },
    {
      "inputs": [],
      "name": "totalSupply",
      "outputs": [
        {
          "internalType": "uint256",
          "name": "",
          "type": "uint256"
        }
      ],
      "stateMutability": "view",
      "type": "function"
    },
    {
      "inputs": [
        {
          "internalType": "address",
          "name": "to",
          "type": "address"
        },
        {
          "internalType": "uint256",
          "name": "amount",
          "type": "uint256"
        }
      ],
      "name": "transfer",
      "outputs": [
        {
          "internalType": "bool",
          "name": "",
          "type": "bool"
        }
      ],
      "stateMutability": "nonpayable",
      "type": "function"
    },
    {
      "inputs": [
        {
          "internalType": "address",
          "name": "from",
          "type": "address"
        },
        {
          "internalType": "address",
          "name": "to",
          "type": "address"
        },
        {
          "internalType": "uint256",
          "name": "amount",
          "type": "uint256"
        }
      ],
      "name": "transferFrom",
      "outputs": [
        {
          "internalType": "bool",
          "name": "",
          "type": "bool"
        }
      ],
      "stateMutability": "nonpayable",
      "type": "function"
    },
    {
      "inputs": [
        {
          "internalType": "address",
          "name": "newOwner",
          "type": "address"
        }
      ],
      "name": "transferOwnership",
      "outputs": [],
      "stateMutability": "nonpayable",
      "type": "function"
    }
  ],
  "bytecode": "0x60806040523480156200001157600080fd5b506040518060400160405280600781526020017f53434154543352000000000000000000000000000000000000000000000000008152506040518060400160405280600781526020017f534341545433520000000000000000000000000000000000000000000000000081525081600390816200008f919062000412565b508060049081620000a1919062000412565b505050620000c4620000b8620000ca60201b60201c565b620000d260201b60201c565b620004f9565b600033905090565b6000600560009054906101000a900473ffffffffffffffffffffffffffffffffffffffff16905081600560006101000a81548173ffffffffffffffffffffffffffffffffffffffff021916908373ffffffffffffffffffffffffffffffffffffffff1602179055508173ffffffffffffffffffffffffffffffffffffffff168173ffffffffffffffffffffffffffffffffffffffff167f8be0079c531659141344cd1fd0a4f28419497f9722a3daafe3b4186f6b6457e060405160405180910390a35050565b600081519050919050565b7f4e487b7100000000000000000000000000000000000000000000000000000000600052604160045260246000fd5b7f4e487b7100000000000000000000000000000000000000000000000000000000600052602260045260246000fd5b600060028204905060018216806200021a57607f821691505b60208210810362000230576200022f620001d2565b5b50919050565b60008190508160005260206000209050919050565b60006020601f8301049050919050565b600082821b905092915050565b6000600883026200029a7fffffffffffffffffffffffffffffffffffffffffffffffffffffffffffffffff826200025b565b620002a686836200025b565b95508019841693508086168417925050509392505050565b6000819050919050565b6000819050919050565b6000620002f3620002ed620002e784620002be565b620002c8565b620002be565b9050919050565b6000819050919050565b6200030f83620002d2565b620003276200031e82620002fa565b84845462000268565b825550505050565b600090565b6200033e6200032f565b6200034b81848462000304565b505050565b5b8181101562000373576200036760008262000334565b60018101905062000351565b5050565b601f821115620003c2576200038c8162000236565b62000397846200024b565b81016020851015620003a7578190505b620003bf620003b6856200024b565b83018262000350565b50505b505050565b600082821c905092915050565b6000620003e760001984600802620003c7565b1980831691505092915050565b6000620004028383620003d4565b9150826002028217905092915050565b6200041d8262000198565b67ffffffffffffffff811115620004395762000438620001a3565b5b62000445825462000201565b6200045282828562000377565b600060209050601f8311600181146200048a576000841562000475578287015190505b620004818582620003f4565b865550620004f1565b601f1984166200049a8662000236565b60005b82811015620004c4578489015182556001820191506020850194506020810190506200049d565b86831015620004e45784890151620004e0601f891682620003d4565b8355505b6001600288020188555050505b505050505050565b611a7180620005096000396000f3fe608060405234801561001057600080fd5b506004361061010b5760003560e01c8063715018a6116100a2578063a457c2d711610071578063a457c2d7146102a8578063a9059cbb146102d8578063dd62ed3e14610308578063ee99205c14610338578063f2fde38b146103565761010b565b8063715018a6146102465780638da5cb5b1461025057806395d89b411461026e5780639dd373b91461028c5761010b565b8063313ce567116100de578063313ce567146101ac57806339509351146101ca57806340c10f19146101fa57806370a08231146102165761010b565b806306fdde0314610110578063095ea7b31461012e57806318160ddd1461015e57806323b872dd1461017c575b600080fd5b610118610372565b60405161012591906110e2565b60405180910390f35b6101486004803603810190610143919061119d565b610404565b60405161015591906111f8565b60405180910390f35b610166610427565b6040516101739190611222565b60405180910390f35b6101966004803603810190610191919061123d565b610431565b6040516101a391906111f8565b60405180910390f35b6101b4610460565b6040516101c191906112ac565b60405180910390f35b6101e460048036038101906101df919061119d565b610469565b6040516101f191906111f8565b60405180910390f35b610214600480360381019061020f919061119d565b6104a0565b005b610230600480360381019061022b91906112c7565b61053e565b60405161023d9190611222565b60405180910390f35b61024e610586565b005b61025861059a565b6040516102659190611303565b60405180910390f35b6102766105c4565b60405161028391906110e2565b60405180910390f35b6102a660048036038101906102a191906112c7565b610656565b005b6102c260048036038101906102bd919061119d565b610711565b6040516102cf91906111f8565b60405180910390f35b6102f260048036038101906102ed919061119d565b610788565b6040516102ff91906111f8565b60405180910390f35b610322600480360381019061031d919061131e565b6107ab565b60405161032f9190611222565b60405180910390f35b610340610832565b60405161034d9190611303565b60405180910390f35b610370600480360381019061036b91906112c7565b610858565b005b6060600380546103819061138d565b80601f01602080910402602001604051908101604052809291908181526020018280546103ad9061138d565b80156103fa5780601f106103cf576101008083540402835291602001916103fa565b820191906000526020600020905b8154815290600101906020018083116103dd57829003601f168201915b5050505050905090565b60008061040f6108db565b905061041c8185856108e3565b600191505092915050565b6000600254905090565b60008061043c6108db565b9050610449858285610aac565b610454858585610b38565b60019150509392505050565b60006012905090565b6000806104746108db565b905061049581858561048685896107ab565b61049091906113ed565b6108e3565b600191505092915050565b600660009054906101000a900473ffffffffffffffffffffffffffffffffffffffff1673ffffffffffffffffffffffffffffffffffffffff163373ffffffffffffffffffffffffffffffffffffffff1614610530576040517f08c379a00000000000000000000000000000000000000000000000000000000081526004016105279061146d565b60405180910390fd5b61053a8282610dae565b5050565b60008060008373ffffffffffffffffffffffffffffffffffffffff1673ffffffffffffffffffffffffffffffffffffffff168152602001908152602001600020549050919050565b61058e610f04565b6105986000610f82565b565b6000600560009054906101000a900473ffffffffffffffffffffffffffffffffffffffff16905090565b6060600480546105d39061138d565b80601f01602080910402602001604051908101604052809291908181526020018280546105ff9061138d565b801561064c5780601f106106215761010080835404028352916020019161064c565b820191906000526020600020905b81548152906001019060200180831161062f57829003601f168201915b5050505050905090565b61065e610f04565b600073ffffffffffffffffffffffffffffffffffffffff168173ffffffffffffffffffffffffffffffffffffffff16036106cd576040517f08c379a00000000000000000000000000000000000000000000000000000000081526004016106c4906114d9565b60405180910390fd5b80600660006101000a81548173ffffffffffffffffffffffffffffffffffffffff021916908373ffffffffffffffffffffffffffffffffffffffff16021790555050565b60008061071c6108db565b9050600061072a82866107ab565b90508381101561076f576040517f08c379a00000000000000000000000000000000000000000000000000000000081526004016107669061156b565b60405180910390fd5b61077c82868684036108e3565b60019250505092915050565b6000806107936108db565b90506107a0818585610b38565b600191505092915050565b6000600160008473ffffffffffffffffffffffffffffffffffffffff1673ffffffffffffffffffffffffffffffffffffffff16815260200190815260200160002060008373ffffffffffffffffffffffffffffffffffffffff1673ffffffffffffffffffffffffffffffffffffffff16815260200190815260200160002054905092915050565b600660009054906101000a900473ffffffffffffffffffffffffffffffffffffffff1681565b610860610f04565b600073ffffffffffffffffffffffffffffffffffffffff168173ffffffffffffffffffffffffffffffffffffffff16036108cf576040517f08c379a00000000000000000000000000000000000000000000000000000000081526004016108c6906115fd565b60405180910390fd5b6108d881610f82565b50565b600033905090565b600073ffffffffffffffffffffffffffffffffffffffff168373ffffffffffffffffffffffffffffffffffffffff1603610952576040517f08c379a00000000000000000000000000000000000000000000000000000000081526004016109499061168f565b60405180910390fd5b600073ffffffffffffffffffffffffffffffffffffffff168273ffffffffffffffffffffffffffffffffffffffff16036109c1576040517f08c379a00000000000000000000000000000000000000000000000000000000081526004016109b890611721565b60405180910390fd5b80600160008573ffffffffffffffffffffffffffffffffffffffff1673ffffffffffffffffffffffffffffffffffffffff16815260200190815260200160002060008473ffffffffffffffffffffffffffffffffffffffff1673ffffffffffffffffffffffffffffffffffffffff168152602001908152602001600020819055508173ffffffffffffffffffffffffffffffffffffffff168373ffffffffffffffffffffffffffffffffffffffff167f8c5be1e5ebec7d5bd14f71427d1e84f3dd0314c0f7b2291e5b200ac8c7c3b92583604051610a9f9190611222565b60405180910390a3505050565b6000610ab884846107ab565b90507fffffffffffffffffffffffffffffffffffffffffffffffffffffffffffffffff8114610b325781811015610b24576040517f08c379a0000000000000000000000000000000000000000000000000000000008152600401610b1b9061178d565b60405180910390fd5b610b3184848484036108e3565b5b50505050565b600073ffffffffffffffffffffffffffffffffffffffff168373ffffffffffffffffffffffffffffffffffffffff1603610ba7576040517f08c379a0000000000000000000000000000000000000000000000000000000008152600401610b9e9061181f565b60405180910390fd5b600073ffffffffffffffffffffffffffffffffffffffff168273ffffffffffffffffffffffffffffffffffffffff1603610c16576040517f08c379a0000000000000000000000000000000000000000000000000000000008152600401610c0d906118b1565b60405180910390fd5b610c21838383611048565b60008060008573ffffffffffffffffffffffffffffffffffffffff1673ffffffffffffffffffffffffffffffffffffffff16815260200190815260200160002054905081811015610ca7576040517f08c379a0000000000000000000000000000000000000000000000000000000008152600401610c9e90611943565b60405180910390fd5b8181036000808673ffffffffffffffffffffffffffffffffffffffff1673ffffffffffffffffffffffffffffffffffffffff16815260200190815260200160002081905550816000808573ffffffffffffffffffffffffffffffffffffffff1673ffffffffffffffffffffffffffffffffffffffff168152602001908152602001600020600082825401925050819055508273ffffffffffffffffffffffffffffffffffffffff168473ffffffffffffffffffffffffffffffffffffffff167fddf252ad1be2c89b69c2b068fc378daa952ba7f163c4a11628f55a4df523b3ef84604051610d959190611222565b60405180910390a3610da884848461104d565b50505050565b600073ffffffffffffffffffffffffffffffffffffffff168273ffffffffffffffffffffffffffffffffffffffff1603610e1d576040517f08c379a0000000000000000000000000000000000000000000000000000000008152600401610e14906119af565b60405180910390fd5b610e2960008383611048565b8060026000828254610e3b91906113ed565b92505081905550806000808473ffffffffffffffffffffffffffffffffffffffff1673ffffffffffffffffffffffffffffffffffffffff168152602001908152602001600020600082825401925050819055508173ffffffffffffffffffffffffffffffffffffffff16600073ffffffffffffffffffffffffffffffffffffffff167fddf252ad1be2c89b69c2b068fc378daa952ba7f163c4a11628f55a4df523b3ef83604051610eec9190611222565b60405180910390a3610f006000838361104d565b5050565b610f0c6108db565b73ffffffffffffffffffffffffffffffffffffffff16610f2a61059a565b73ffffffffffffffffffffffffffffffffffffffff1614610f80576040517f08c379a0000000000000000000000000000000000000000000000000000000008152600401610f7790611a1b565b60405180910390fd5b565b6000600560009054906101000a900473ffffffffffffffffffffffffffffffffffffffff16905081600560006101000a81548173ffffffffffffffffffffffffffffffffffffffff021916908373ffffffffffffffffffffffffffffffffffffffff1602179055508173ffffffffffffffffffffffffffffffffffffffff168173ffffffffffffffffffffffffffffffffffffffff167f8be0079c531659141344cd1fd0a4f28419497f9722a3daafe3b4186f6b6457e060405160405180910390a35050565b505050565b505050565b600081519050919050565b600082825260208201905092915050565b60005b8381101561108c578082015181840152602081019050611071565b60008484015250505050565b6000601f19601f8301169050919050565b60006110b482611052565b6110be818561105d565b93506110ce81856020860161106e565b6110d781611098565b840191505092915050565b600060208201905081810360008301526110fc81846110a9565b905092915050565b600080fd5b600073ffffffffffffffffffffffffffffffffffffffff82169050919050565b600061113482611109565b9050919050565b61114481611129565b811461114f57600080fd5b50565b6000813590506111618161113b565b92915050565b6000819050919050565b61117a81611167565b811461118557600080fd5b50565b60008135905061119781611171565b92915050565b600080604083850312156111b4576111b3611104565b5b60006111c285828601611152565b92505060206111d385828601611188565b9150509250929050565b60008115159050919050565b6111f2816111dd565b82525050565b600060208201905061120d60008301846111e9565b92915050565b61121c81611167565b82525050565b60006020820190506112376000830184611213565b92915050565b60008060006060848603121561125657611255611104565b5b600061126486828701611152565b935050602061127586828701611152565b925050604061128686828701611188565b9150509250925092565b600060ff82169050919050565b6112a681611290565b82525050565b60006020820190506112c1600083018461129d565b92915050565b6000602082840312156112dd576112dc611104565b5b60006112eb84828501611152565b91505092915050565b6112fd81611129565b82525050565b600060208201905061131860008301846112f4565b92915050565b6000806040838503121561133557611334611104565b5b600061134385828601611152565b925050602061135485828601611152565b9150509250929050565b7f4e487b7100000000000000000000000000000000000000000000000000000000600052602260045260246000fd5b600060028204905060018216806113a557607f821691505b6020821081036113b8576113b761135e565b5b50919050565b7f4e487b7100000000000000000000000000000000000000000000000000000000600052601160045260246000fd5b60006113f882611167565b915061140383611167565b925082820190508082111561141b5761141a6113be565b5b92915050565b7f4f6e6c79207374616b696e6720636f6e74726163742063616e206d696e740000600082015250565b6000611457601e8361105d565b915061146282611421565b602082019050919050565b600060208201905081810360008301526114868161144a565b9050919050565b7f496e76616c6964207374616b696e6720636f6e74726163740000000000000000600082015250565b60006114c360188361105d565b91506114ce8261148d565b602082019050919050565b600060208201905081810360008301526114f2816114b6565b9050919050565b7f45524332303a2064656372656173656420616c6c6f77616e63652062656c6f7760008201527f207a65726f000000000000000000000000000000000000000000000000000000602082015250565b600061155560258361105d565b9150611560826114f9565b604082019050919050565b6000602082019050818103600083015261158481611548565b9050919050565b7f4f776e61626c653a206e6577206f776e657220697320746865207a65726f206160008201527f6464726573730000000000000000000000000000000000000000000000000000602082015250565b60006115e760268361105d565b91506115f28261158b565b604082019050919050565b60006020820190508181036000830152611616816115da565b9050919050565b7f45524332303a20617070726f76652066726f6d20746865207a65726f2061646460008201527f7265737300000000000000000000000000000000000000000000000000000000602082015250565b600061167960248361105d565b91506116848261161d565b604082019050919050565b600060208201905081810360008301526116a88161166c565b9050919050565b7f45524332303a20617070726f766520746f20746865207a65726f20616464726560008201527f7373000000000000000000000000000000000000000000000000000000000000602082015250565b600061170b60228361105d565b9150611716826116af565b604082019050919050565b6000602082019050818103600083015261173a816116fe565b9050919050565b7f45524332303a20696e73756666696369656e7420616c6c6f77616e6365000000600082015250565b6000611777601d8361105d565b915061178282611741565b602082019050919050565b600060208201905081810360008301526117a68161176a565b9050919050565b7f45524332303a207472616e736665722066726f6d20746865207a65726f20616460008201527f6472657373000000000000000000000000000000000000000000000000000000602082015250565b600061180960258361105d565b9150611814826117ad565b604082019050919050565b60006020820190508181036000830152611838816117fc565b9050919050565b7f45524332303a207472616e7366657220746f20746865207a65726f206164647260008201527f6573730000000000000000000000000000000000000000000000000000000000602082015250565b600061189b60238361105d565b91506118a68261183f565b604082019050919050565b600060208201905081810360008301526118ca8161188e565b9050919050565b7f45524332303a207472616e7366657220616d6f756e742065786365656473206260008201527f616c616e63650000000000000000000000000000000000000000000000000000602082015250565b600061192d60268361105d565b9150611938826118d1565b604082019050919050565b6000602082019050818103600083015261195c81611920565b9050919050565b7f45524332303a206d696e7420746f20746865207a65726f206164647265737300600082015250565b6000611999601f8361105d565b91506119a482611963565b602082019050919050565b600060208201905081810360008301526119c88161198c565b9050919050565b7f4f776e61626c653a2063616c6c6572206973206e6f7420746865206f776e6572600082015250565b6000611a0560208361105d565b9150611a10826119cf565b602082019050919050565b60006020820190508181036000830152611a34816119f8565b905091905056fea264697066735822122053b482e75c1b162be33c33a59311292f16633757451d970e57d1e9508733020e64736f6c63430008180033",
  "linkReferences": {},
  "deployedLinkReferences": {}
}